:1000000045C0000060C000005EC000005CC0000091
:100010005AC0000058C0000056C0000054C0000084
:1000200052C0000050C000004EC000004CC0000094
:100030004AC0000048C0000047C0000044C00000A3
:1000400042C0000040C000003EC000003CC00000B4
:100050003AC0000038C0000036C0000034C00000C4
:1000600032C0000030C000002EC000002CC00000D4
:100070002AC0000028C0000026C0000024C00000E4
:1000800022C0000020C000001EC0000011241FBEBE
:10009000CFEFD0E1DEBFCDBF21E0A4E0B1E001C0F1
:1000A0001D92A530B207E1F711E0A0E0B1E0E4E96C
:1000B000F2E000E00BBF02C007900D92A430B10740
:1000C000D9F715D0E5C09CCF1F920F920FB60F92B3
:1000D00011248F9381E08093040185E88DBD8DEE1E
:1000E0008CBD8F910F900FBE0F901F90189586E8D2
:1000F0008093900080EA89B988E08AB98EE0809385
:100100009500789487B7846087BF84E08EBD8FEFB9
:100110008DBD8EEF8CBD80910401882321F04DD0E0
:100120008CB9109204015D9BFECFF5CF8F929F9208
:10013000AF92BF92CF92DF92EF92FF92CF93DF9375
:10014000EC01688179818A819B8161157105810546
:10015000910521F464E279ED8BE597E02DE133EF31
:1001600041E050E038D049015A019B01AC01A7EAB7
:10017000B1E44DD06B017C01ACEEB4EFA50194016C
:1001800052D0DC01CB018C0D9D1DAE1DBF1DB7FFF4
:1001900003C00197A109B04888839983AA83BB83D0
:1001A0009F77DF91CF91FF90EF90DF90CF90BF903E
:1001B000AF909F908F900895B9CF80E091E0B6CF37
:1001C000A0E0B0E08093000190930101A0930201B0
:1001D000B09303010895052E97FB16F400940FD0F9
:1001E00057FD05D024D007FC02D046F408C0509536
:1001F0004095309521953F4F4F4F5F4F0895909513
:100200008095709561957F4F8F4F9F4F089531D0A6
:10021000A59F900DB49F900DA49F800D911D11245A
:100220000895B7FFF4CFF3DF821B930B0895A1E28B
:100230001A2EAA1BBB1BFD010DC0AA1FBB1FEE1F60
:10024000FF1FA217B307E407F50720F0A21BB30BAB
:10025000E40BF50B661F771F881F991F1A9469F727
:1002600060957095809590959B01AC01BD01CF0183
:100270000895A29FB001B39FC001A39F700D811D7F
:100280001124911DB29F700D811D1124911D08959F
:04029000F894FFCF10
:040294000100000065
:00000001FF
